{
  "_format": "hh-sol-artifact-1",
  "contractName": "MedicalReport",
  "sourceName": "contracts/MedicalReport.sol",
  "abi": [
    {
      "anonymous": false,
      "inputs": [
        {
          "indexed": false,
          "internalType": "string",
          "name": "doctorId",
          "type": "string"
        },
        {
          "indexed": false,
          "internalType": "string",
          "name": "patientId",
          "type": "string"
        },
        {
          "indexed": false,
          "internalType": "uint256",
          "name": "reportId",
          "type": "uint256"
        }
      ],
      "name": "AccessGranted",
      "type": "event"
    },
    {
      "anonymous": false,
      "inputs": [
        {
          "indexed": false,
          "internalType": "string",
          "name": "doctorId",
          "type": "string"
        },
        {
          "indexed": false,
          "internalType": "string",
          "name": "patientId",
          "type": "string"
        },
        {
          "indexed": false,
          "internalType": "uint256",
          "name": "reportId",
          "type": "uint256"
        }
      ],
      "name": "AccessRevoked",
      "type": "event"
    },
    {
      "anonymous": false,
      "inputs": [
        {
          "indexed": true,
          "internalType": "uint256",
          "name": "reportId",
          "type": "uint256"
        },
        {
          "indexed": false,
          "internalType": "string",
          "name": "newMetadata",
          "type": "string"
        }
      ],
      "name": "MetadataUpdated",
      "type": "event"
    },
    {
      "anonymous": false,
      "inputs": [
        {
          "indexed": true,
          "internalType": "address",
          "name": "previousOwner",
          "type": "address"
        },
        {
          "indexed": true,
          "internalType": "address",
          "name": "newOwner",
          "type": "address"
        }
      ],
      "name": "OwnershipTransferred",
      "type": "event"
    },
    {
      "anonymous": false,
      "inputs": [
        {
          "indexed": false,
          "internalType": "address",
          "name": "account",
          "type": "address"
        }
      ],
      "name": "Paused",
      "type": "event"
    },
    {
      "anonymous": false,
      "inputs": [
        {
          "indexed": true,
          "internalType": "uint256",
          "name": "reportId",
          "type": "uint256"
        },
        {
          "indexed": false,
          "internalType": "string",
          "name": "doctorId",
          "type": "string"
        },
        {
          "indexed": false,
          "internalType": "string",
          "name": "accessLevel",
          "type": "string"
        }
      ],
      "name": "ReportAccessed",
      "type": "event"
    },
    {
      "anonymous": false,
      "inputs": [
        {
          "indexed": true,
          "internalType": "uint256",
          "name": "reportId",
          "type": "uint256"
        },
        {
          "indexed": false,
          "internalType": "string",
          "name": "patientId",
          "type": "string"
        },
        {
          "indexed": false,
          "internalType": "string",
          "name": "ipfsHash",
          "type": "string"
        },
        {
          "indexed": false,
          "internalType": "string",
          "name": "reportType",
          "type": "string"
        }
      ],
      "name": "ReportAdded",
      "type": "event"
    },
    {
      "anonymous": false,
      "inputs": [
        {
          "indexed": false,
          "internalType": "address",
          "name": "account",
          "type": "address"
        }
      ],
      "name": "Unpaused",
      "type": "event"
    },
    {
      "inputs": [
        {
          "internalType": "string",
          "name": "patientId",
          "type": "string"
        },
        {
          "internalType": "string",
          "name": "ipfsHash",
          "type": "string"
        },
        {
          "internalType": "string",
          "name": "encryptedMetadata",
          "type": "string"
        },
        {
          "internalType": "string",
          "name": "reportType",
          "type": "string"
        }
      ],
      "name": "addMedicalReport",
      "outputs": [
        {
          "internalType": "uint256",
          "name": "",
          "type": "uint256"
        }
      ],
      "stateMutability": "nonpayable",
      "type": "function"
    },
    {
      "inputs": [
        {
          "internalType": "string",
          "name": "",
          "type": "string"
        }
      ],
      "name": "authorizedDoctors",
      "outputs": [
        {
          "internalType": "bool",
          "name": "",
          "type": "bool"
        }
      ],
      "stateMutability": "view",
      "type": "function"
    },
    {
      "inputs": [
        {
          "internalType": "string",
          "name": "",
          "type": "string"
        },
        {
          "internalType": "uint256",
          "name": "",
          "type": "uint256"
        }
      ],
      "name": "doctorReports",
      "outputs": [
        {
          "internalType": "uint256",
          "name": "",
          "type": "uint256"
        }
      ],
      "stateMutability": "view",
      "type": "function"
    },
    {
      "inputs": [
        {
          "internalType": "string",
          "name": "doctorId",
          "type": "string"
        }
      ],
      "name": "getDoctorReports",
      "outputs": [
        {
          "internalType": "uint256[]",
          "name": "",
          "type": "uint256[]"
        }
      ],
      "stateMutability": "view",
      "type": "function"
    },
    {
      "inputs": [
        {
          "internalType": "string",
          "name": "patientId",
          "type": "string"
        }
      ],
      "name": "getPatientReports",
      "outputs": [
        {
          "internalType": "uint256[]",
          "name": "",
          "type": "uint256[]"
        }
      ],
      "stateMutability": "view",
      "type": "function"
    },
    {
      "inputs": [
        {
          "internalType": "uint256",
          "name": "reportId",
          "type": "uint256"
        }
      ],
      "name": "getReportDetails",
      "outputs": [
        {
          "internalType": "string",
          "name": "patientId",
          "type": "string"
        },
        {
          "internalType": "string",
          "name": "ipfsHash",
          "type": "string"
        },
        {
          "internalType": "string",
          "name": "reportType",
          "type": "string"
        },
        {
          "internalType": "uint256",
          "name": "timestamp",
          "type": "uint256"
        },
        {
          "internalType": "bool",
          "name": "isEncrypted",
          "type": "bool"
        }
      ],
      "stateMutability": "view",
      "type": "function"
    },
    {
      "inputs": [
        {
          "internalType": "uint256",
          "name": "reportId",
          "type": "uint256"
        }
      ],
      "name": "getReportIPFSHash",
      "outputs": [
        {
          "internalType": "string",
          "name": "",
          "type": "string"
        }
      ],
      "stateMutability": "view",
      "type": "function"
    },
    {
      "inputs": [
        {
          "internalType": "uint256",
          "name": "reportId",
          "type": "uint256"
        }
      ],
      "name": "getReportMetadata",
      "outputs": [
        {
          "internalType": "string",
          "name": "",
          "type": "string"
        }
      ],
      "stateMutability": "view",
      "type": "function"
    },
    {
      "inputs": [
        {
          "internalType": "string",
          "name": "doctorId",
          "type": "string"
        },
        {
          "internalType": "uint256",
          "name": "reportId",
          "type": "uint256"
        },
        {
          "internalType": "string",
          "name": "accessLevel",
          "type": "string"
        }
      ],
      "name": "grantReportAccess",
      "outputs": [],
      "stateMutability": "nonpayable",
      "type": "function"
    },
    {
      "inputs": [
        {
          "internalType": "string",
          "name": "doctorId",
          "type": "string"
        },
        {
          "internalType": "uint256",
          "name": "reportId",
          "type": "uint256"
        }
      ],
      "name": "hasReportAccess",
      "outputs": [
        {
          "internalType": "bool",
          "name": "",
          "type": "bool"
        }
      ],
      "stateMutability": "view",
      "type": "function"
    },
    {
      "inputs": [
        {
          "internalType": "uint256",
          "name": "",
          "type": "uint256"
        }
      ],
      "name": "medicalReports",
      "outputs": [
        {
          "internalType": "uint256",
          "name": "reportId",
          "type": "uint256"
        },
        {
          "internalType": "string",
          "name": "patientId",
          "type": "string"
        },
        {
          "internalType": "string",
          "name": "doctorId",
          "type": "string"
        },
        {
          "internalType": "string",
          "name": "ipfsHash",
          "type": "string"
        },
        {
          "internalType": "string",
          "name": "encryptedMetadata",
          "type": "string"
        },
        {
          "internalType": "string",
          "name": "reportType",
          "type": "string"
        },
        {
          "internalType": "uint256",
          "name": "timestamp",
          "type": "uint256"
        },
        {
          "internalType": "bool",
          "name": "isValid",
          "type": "bool"
        },
        {
          "internalType": "bool",
          "name": "isEncrypted",
          "type": "bool"
        },
        {
          "internalType": "string",
          "name": "accessHash",
          "type": "string"
        }
      ],
      "stateMutability": "view",
      "type": "function"
    },
    {
      "inputs": [],
      "name": "owner",
      "outputs": [
        {
          "internalType": "address",
          "name": "",
          "type": "address"
        }
      ],
      "stateMutability": "view",
      "type": "function"
    },
    {
      "inputs": [
        {
          "internalType": "string",
          "name": "",
          "type": "string"
        },
        {
          "internalType": "uint256",
          "name": "",
          "type": "uint256"
        }
      ],
      "name": "patientReports",
      "outputs": [
        {
          "internalType": "uint256",
          "name": "",
          "type": "uint256"
        }
      ],
      "stateMutability": "view",
      "type": "function"
    },
    {
      "inputs": [],
      "name": "paused",
      "outputs": [
        {
          "internalType": "bool",
          "name": "",
          "type": "bool"
        }
      ],
      "stateMutability": "view",
      "type": "function"
    },
    {
      "inputs": [
        {
          "internalType": "string",
          "name": "doctorId",
          "type": "string"
        }
      ],
      "name": "registerDoctor",
      "outputs": [],
      "stateMutability": "nonpayable",
      "type": "function"
    },
    {
      "inputs": [
        {
          "internalType": "string",
          "name": "patientId",
          "type": "string"
        }
      ],
      "name": "registerPatient",
      "outputs": [],
      "stateMutability": "nonpayable",
      "type": "function"
    },
    {
      "inputs": [
        {
          "internalType": "string",
          "name": "",
          "type": "string"
        }
      ],
      "name": "registeredPatients",
      "outputs": [
        {
          "internalType": "bool",
          "name": "",
          "type": "bool"
        }
      ],
      "stateMutability": "view",
      "type": "function"
    },
    {
      "inputs": [],
      "name": "renounceOwnership",
      "outputs": [],
      "stateMutability": "nonpayable",
      "type": "function"
    },
    {
      "inputs": [
        {
          "internalType": "bytes32",
          "name": "",
          "type": "bytes32"
        }
      ],
      "name": "reportAccess",
      "outputs": [
        {
          "internalType": "string",
          "name": "doctorId",
          "type": "string"
        },
        {
          "internalType": "string",
          "name": "patientId",
          "type": "string"
        },
        {
          "internalType": "uint256",
          "name": "reportId",
          "type": "uint256"
        },
        {
          "internalType": "uint256",
          "name": "accessTimestamp",
          "type": "uint256"
        },
        {
          "internalType": "bool",
          "name": "hasAccess",
          "type": "bool"
        },
        {
          "internalType": "string",
          "name": "accessLevel",
          "type": "string"
        }
      ],
      "stateMutability": "view",
      "type": "function"
    },
    {
      "inputs": [
        {
          "internalType": "string",
          "name": "doctorId",
          "type": "string"
        },
        {
          "internalType": "uint256",
          "name": "reportId",
          "type": "uint256"
        }
      ],
      "name": "revokeReportAccess",
      "outputs": [],
      "stateMutability": "nonpayable",
      "type": "function"
    },
    {
      "inputs": [
        {
          "internalType": "address",
          "name": "newOwner",
          "type": "address"
        }
      ],
      "name": "transferOwnership",
      "outputs": [],
      "stateMutability": "nonpayable",
      "type": "function"
    },
    {
      "inputs": [
        {
          "internalType": "uint256",
          "name": "reportId",
          "type": "uint256"
        },
        {
          "internalType": "string",
          "name": "newMetadata",
          "type": "string"
        }
      ],
      "name": "updateReportMetadata",
      "outputs": [],
      "stateMutability": "nonpayable",
      "type": "function"
    }
  ],
  "bytecode": "0x608060405234801561001057600080fd5b5061001a3361002c565b6000805460ff60a01b1916905561007c565b600080546001600160a01b038381166001600160a01b0319831681178455604051919092169283917f8be0079c531659141344cd1fd0a4f28419497f9722a3daafe3b4186f6b6457e09190a35050565b6121da8061008b6000396000f3fe608060405234801561001057600080fd5b50600436106101425760003560e01c8063715018a6116100b85780638f09ab5b1161007c5780638f09ab5b1461030f578063a2df7d0b14610322578063a994df191461034b578063cfa8b2b01461035e578063edbae0d414610371578063f2fde38b1461038457600080fd5b8063715018a6146102a25780637a2adb6e146102aa578063869c9eaf146102ce57806389e7754e146102e15780638da5cb5b146102f457600080fd5b80633dd1799e1161010a5780633dd1799e146101de5780634b71044d146101fe5780634fa3697b1461023c5780635c975abb1461024f57806361204db514610261578063673501cd1461027457600080fd5b8063168199a21461014757806318293cd9146101755780631887ddb61461019557806325e22f5d146101aa57806339ef2910146101bd575b600080fd5b61015a61015536600461193f565b610397565b60405161016c969594939291906119a8565b60405180910390f35b610188610183366004611aa5565b61056c565b60405161016c9190611ae2565b6101a86101a3366004611b26565b6105dc565b005b6101886101b8366004611aa5565b610671565b6101d06101cb366004611b6d565b610683565b60405190815260200161016c565b6101f16101ec36600461193f565b6106c3565b60405161016c9190611bb2565b61022c61020c366004611aa5565b805160208183018101805160068252928201919093012091525460ff1681565b604051901515815260200161016c565b6101f161024a36600461193f565b61079c565b600054600160a01b900460ff1661022c565b6101a861026f366004611b6d565b6107ee565b61022c610282366004611aa5565b805160208183018101805160078252928201919093012091525460ff1681565b6101a861097a565b6102bd6102b836600461193f565b61098e565b60405161016c959493929190611bcc565b6101a86102dc366004611aa5565b610dbe565b6101d06102ef366004611b6d565b610dfb565b6000546040516001600160a01b03909116815260200161016c565b6101a861031d366004611aa5565b610e26565b61033561033036600461193f565b610e40565b60405161016c9a99989796959493929190611c1f565b61022c610359366004611b6d565b6111c9565b6101a861036c366004611cc6565b611214565b6101d061037f366004611d33565b6114a2565b6101a8610392366004611de0565b6116f0565b6005602052600090815260409020805481906103b290611e09565b80601f01602080910402602001604051908101604052809291908181526020018280546103de90611e09565b801561042b5780601f106104005761010080835404028352916020019161042b565b820191906000526020600020905b81548152906001019060200180831161040e57829003601f168201915b50505050509080600101805461044090611e09565b80601f016020809104026020016040519081016040528092919081815260200182805461046c90611e09565b80156104b95780601f1061048e576101008083540402835291602001916104b9565b820191906000526020600020905b81548152906001019060200180831161049c57829003601f168201915b5050506002840154600385015460048601546005870180549697939692955060ff9091169350906104e990611e09565b80601f016020809104026020016040519081016040528092919081815260200182805461051590611e09565b80156105625780601f1061053757610100808354040283529160200191610562565b820191906000526020600020905b81548152906001019060200180831161054557829003601f168201915b5050505050905086565b606060038260405161057e9190611e3d565b90815260408051918290036020908101832080548083028501830190935282845291908301828280156105d057602002820191906000526020600020905b8154815260200190600101908083116105bc575b50505050509050919050565b600082815260026020526040902060070154829060ff166106185760405162461bcd60e51b815260040161060f90611e59565b60405180910390fd5b60008381526002602052604090206004016106338382611ed7565b50827f459157ba24c7ab9878b165ef465fa6ae2ab42bcd8445f576be378768b0c47309836040516106649190611bb2565b60405180910390a2505050565b606060048260405161057e9190611e3d565b815160208184018101805160038252928201918501919091209190528054829081106106ae57600080fd5b90600052602060002001600091509150505481565b600081815260026020526040902060070154606090829060ff166106f95760405162461bcd60e51b815260040161060f90611e59565b6000838152600260205260409020600401805461071590611e09565b80601f016020809104026020016040519081016040528092919081815260200182805461074190611e09565b801561078e5780601f106107635761010080835404028352916020019161078e565b820191906000526020600020905b81548152906001019060200180831161077157829003601f168201915b505050505091505b50919050565b600081815260026020526040902060070154606090829060ff166107d25760405162461bcd60e51b815260040161060f90611e59565b6000838152600260205260409020600301805461071590611e09565b816006816040516107ff9190611e3d565b9081526040519081900360200190205460ff166108565760405162461bcd60e51b8152602060048201526015602482015274111bd8dd1bdc881b9bdd08185d5d1a1bdc9a5e9959605a1b604482015260640161060f565b600082815260026020526040902060070154829060ff166108895760405162461bcd60e51b815260040161060f90611e59565b6000848460405160200161089e929190611f97565b60408051601f1981840301815291815281516020928301206000818152600590935291206004015490915060ff1661090e5760405162461bcd60e51b81526020600482015260136024820152724e6f2061636365737320746f207265766f6b6560681b604482015260640161060f565b6000818152600560209081526040808320600401805460ff1916905586835260029091529081902090517f3f39258e72ff555e25d045a4aac9b31525c32bef110b87f586f67316a21920229161096b918891600101908890611fb9565b60405180910390a15050505050565b610982611769565b61098c60006117c3565b565b60008181526002602052604081206007015460609182918291908190869060ff166109cb5760405162461bcd60e51b815260040161060f90611e59565b6000600260008981526020019081526020016000206040518061014001604052908160008201548152602001600182018054610a0690611e09565b80601f0160208091040260200160405190810160405280929190818152602001828054610a3290611e09565b8015610a7f5780601f10610a5457610100808354040283529160200191610a7f565b820191906000526020600020905b815481529060010190602001808311610a6257829003601f168201915b50505050508152602001600282018054610a9890611e09565b80601f0160208091040260200160405190810160405280929190818152602001828054610ac490611e09565b8015610b115780601f10610ae657610100808354040283529160200191610b11565b820191906000526020600020905b815481529060010190602001808311610af457829003601f168201915b50505050508152602001600382018054610b2a90611e09565b80601f0160208091040260200160405190810160405280929190818152602001828054610b5690611e09565b8015610ba35780601f10610b7857610100808354040283529160200191610ba3565b820191906000526020600020905b815481529060010190602001808311610b8657829003601f168201915b50505050508152602001600482018054610bbc90611e09565b80601f0160208091040260200160405190810160405280929190818152602001828054610be890611e09565b8015610c355780601f10610c0a57610100808354040283529160200191610c35565b820191906000526020600020905b815481529060010190602001808311610c1857829003601f168201915b50505050508152602001600582018054610c4e90611e09565b80601f0160208091040260200160405190810160405280929190818152602001828054610c7a90611e09565b8015610cc75780601f10610c9c57610100808354040283529160200191610cc7565b820191906000526020600020905b815481529060010190602001808311610caa57829003601f168201915b505050918352505060068201546020820152600782015460ff808216151560408401526101009091041615156060820152600882018054608090920191610d0d90611e09565b80601f0160208091040260200160405190810160405280929190818152602001828054610d3990611e09565b8015610d865780601f10610d5b57610100808354040283529160200191610d86565b820191906000526020600020905b815481529060010190602001808311610d6957829003601f168201915b505050919092525050506020810151606082015160a083015160c084015161010090940151929c919b50995091975095509350505050565b610dc6611769565b6001600782604051610dd89190611e3d565b908152604051908190036020019020805491151560ff1990921691909117905550565b815160208184018101805160048252928201918501919091209190528054829081106106ae57600080fd5b610e2e611769565b6001600682604051610dd89190611e3d565b60026020526000908152604090208054600182018054919291610e6290611e09565b80601f0160208091040260200160405190810160405280929190818152602001828054610e8e90611e09565b8015610edb5780601f10610eb057610100808354040283529160200191610edb565b820191906000526020600020905b815481529060010190602001808311610ebe57829003601f168201915b505050505090806002018054610ef090611e09565b80601f0160208091040260200160405190810160405280929190818152602001828054610f1c90611e09565b8015610f695780601f10610f3e57610100808354040283529160200191610f69565b820191906000526020600020905b815481529060010190602001808311610f4c57829003601f168201915b505050505090806003018054610f7e90611e09565b80601f0160208091040260200160405190810160405280929190818152602001828054610faa90611e09565b8015610ff75780601f10610fcc57610100808354040283529160200191610ff7565b820191906000526020600020905b815481529060010190602001808311610fda57829003601f168201915b50505050509080600401805461100c90611e09565b80601f016020809104026020016040519081016040528092919081815260200182805461103890611e09565b80156110855780601f1061105a57610100808354040283529160200191611085565b820191906000526020600020905b81548152906001019060200180831161106857829003601f168201915b50505050509080600501805461109a90611e09565b80601f01602080910402602001604051908101604052809291908181526020018280546110c690611e09565b80156111135780601f106110e857610100808354040283529160200191611113565b820191906000526020600020905b8154815290600101906020018083116110f657829003601f168201915b505050600684015460078501546008860180549596929560ff808416965061010090930490921693509061114690611e09565b80601f016020809104026020016040519081016040528092919081815260200182805461117290611e09565b80156111bf5780601f10611194576101008083540402835291602001916111bf565b820191906000526020600020905b8154815290600101906020018083116111a257829003601f168201915b505050505090508a565b60008083836040516020016111df929190611f97565b60408051601f1981840301815291815281516020928301206000908152600590925290206004015460ff169150505b92915050565b826006816040516112259190611e3d565b9081526040519081900360200190205460ff1661127c5760405162461bcd60e51b8152602060048201526015602482015274111bd8dd1bdc881b9bdd08185d5d1a1bdc9a5e9959605a1b604482015260640161060f565b600083815260026020526040902060070154839060ff166112af5760405162461bcd60e51b815260040161060f90611e59565b600085856040516020016112c4929190611f97565b60408051601f19818403018152828252805160209182012060c0840183528984526000898152600283529290922060010180549294509083019161130790611e09565b80601f016020809104026020016040519081016040528092919081815260200182805461133390611e09565b80156113805780601f1061135557610100808354040283529160200191611380565b820191906000526020600020905b81548152906001019060200180831161136357829003601f168201915b50505091835250506020808201889052426040808401919091526001606084015260809092018790526000848152600590915220815181906113c29082611ed7565b50602082015160018201906113d79082611ed7565b506040820151600282015560608201516003820155608082015160048201805460ff191691151591909117905560a082015160058201906114189082611ed7565b5090505060048660405161142c9190611e3d565b90815260408051918290036020908101832080546001818101835560009283528383209091018a90558982526002909252919091207f782f1aed3ab0ec05a4acfc688a38588753c1da1ff5db0a13f800dbd59eb234fe92611492928a9201908990611fb9565b60405180910390a1505050505050565b6000846007816040516114b59190611e3d565b9081526040519081900360200190205460ff1661150d5760405162461bcd60e51b815260206004820152601660248201527514185d1a595b9d081b9bdd081c9959da5cdd195c995960521b604482015260640161060f565b61151b600180546001019055565b600061152660015490565b90506000878761153542611813565b6040516020016115479392919061205d565b60408051601f198184030181526101408301825284835260208381018c815283518083018552600080825286860191909152606086018d9052608086018c905260a086018b90524260c0870152600160e08701819052610100870181905261012087018590528882526002909352939093208451815592519194508201906115cf9082611ed7565b50604082015160028201906115e49082611ed7565b50606082015160038201906115f99082611ed7565b506080820151600482019061160e9082611ed7565b5060a082015160058201906116239082611ed7565b5060c0820151600682015560e08201516007820180546101008086015115150261ff00199315159390931661ffff199091161791909117905561012082015160088201906116719082611ed7565b509050506003886040516116859190611e3d565b9081526040519081900360209081018220805460018101825560009182529190200183905582907f22b2f050cd8fd2d0af08e7e441db578e4f3ed815d3cd37346d60f8010590d314906116dd908b908b908a906120b7565b60405180910390a2509695505050505050565b6116f8611769565b6001600160a01b03811661175d5760405162461bcd60e51b815260206004820152602660248201527f4f776e61626c653a206e6577206f776e657220697320746865207a65726f206160448201526564647265737360d01b606482015260840161060f565b611766816117c3565b50565b6000546001600160a01b0316331461098c5760405162461bcd60e51b815260206004820181905260248201527f4f776e61626c653a2063616c6c6572206973206e6f7420746865206f776e6572604482015260640161060f565b600080546001600160a01b038381166001600160a01b0319831681178455604051919092169283917f8be0079c531659141344cd1fd0a4f28419497f9722a3daafe3b4186f6b6457e09190a35050565b60608160000361183a5750506040805180820190915260018152600360fc1b602082015290565b8160005b8115611864578061184e81612110565b915061185d9050600a83612129565b915061183e565b60008167ffffffffffffffff81111561187f5761187f611a02565b6040519080825280601f01601f1916602001820160405280156118a9576020820181803683370190505b509050815b8515611936576118bf60018261214b565b905060006118ce600a88612129565b6118d990600a61215e565b6118e3908861214b565b6118ee906030612175565b905060008160f81b90508084848151811061190b5761190b61218e565b60200101906001600160f81b031916908160001a90535061192d600a89612129565b975050506118ae565b50949350505050565b60006020828403121561195157600080fd5b5035919050565b60005b8381101561197357818101518382015260200161195b565b50506000910152565b60008151808452611994816020860160208601611958565b601f01601f19169290920160200192915050565b60c0815260006119bb60c083018961197c565b82810360208401526119cd818961197c565b9050866040840152856060840152841515608084015282810360a08401526119f5818561197c565b9998505050505050505050565b634e487b7160e01b600052604160045260246000fd5b600082601f830112611a2957600080fd5b813567ffffffffffffffff80821115611a4457611a44611a02565b604051601f8301601f19908116603f01168101908282118183101715611a6c57611a6c611a02565b81604052838152866020858801011115611a8557600080fd5b836020870160208301376000602085830101528094505050505092915050565b600060208284031215611ab757600080fd5b813567ffffffffffffffff811115611ace57600080fd5b611ada84828501611a18565b949350505050565b6020808252825182820181905260009190848201906040850190845b81811015611b1a57835183529284019291840191600101611afe565b50909695505050505050565b60008060408385031215611b3957600080fd5b82359150602083013567ffffffffffffffff811115611b5757600080fd5b611b6385828601611a18565b9150509250929050565b60008060408385031215611b8057600080fd5b823567ffffffffffffffff811115611b9757600080fd5b611ba385828601611a18565b95602094909401359450505050565b602081526000611bc5602083018461197c565b9392505050565b60a081526000611bdf60a083018861197c565b8281036020840152611bf1818861197c565b90508281036040840152611c05818761197c565b606084019590955250509015156080909101529392505050565b60006101408c8352806020840152611c398184018d61197c565b90508281036040840152611c4d818c61197c565b90508281036060840152611c61818b61197c565b90508281036080840152611c75818a61197c565b905082810360a0840152611c89818961197c565b90508660c084015285151560e0840152841515610100840152828103610120840152611cb5818561197c565b9d9c50505050505050505050505050565b600080600060608486031215611cdb57600080fd5b833567ffffffffffffffff80821115611cf357600080fd5b611cff87838801611a18565b9450602086013593506040860135915080821115611d1c57600080fd5b50611d2986828701611a18565b9150509250925092565b60008060008060808587031215611d4957600080fd5b843567ffffffffffffffff80821115611d6157600080fd5b611d6d88838901611a18565b95506020870135915080821115611d8357600080fd5b611d8f88838901611a18565b94506040870135915080821115611da557600080fd5b611db188838901611a18565b93506060870135915080821115611dc757600080fd5b50611dd487828801611a18565b91505092959194509250565b600060208284031215611df257600080fd5b81356001600160a01b0381168114611bc557600080fd5b600181811c90821680611e1d57607f821691505b60208210810361079657634e487b7160e01b600052602260045260246000fd5b60008251611e4f818460208701611958565b9190910192915050565b60208082526015908201527414995c1bdc9d08191bd95cc81b9bdd08195e1a5cdd605a1b604082015260600190565b601f821115611ed257600081815260208120601f850160051c81016020861015611eaf5750805b601f850160051c820191505b81811015611ece57828155600101611ebb565b5050505b505050565b815167ffffffffffffffff811115611ef157611ef1611a02565b611f0581611eff8454611e09565b84611e88565b602080601f831160018114611f3a5760008415611f225750858301515b600019600386901b1c1916600185901b178555611ece565b600085815260208120601f198616915b82811015611f6957888601518255948401946001909101908401611f4a565b5085821015611f875787850151600019600388901b60f8161c191681555b5050505050600190811b01905550565b60008351611fa9818460208801611958565b9190910191825250602001919050565b606081526000611fcc606083018661197c565b60208382038185015260008654611fe281611e09565b80855260018281168015611ffd576001811461201757612045565b60ff1984168787015282151560051b870186019450612045565b8a6000528560002060005b8481101561203d578154898201890152908301908701612022565b880187019550505b50505050809350505050826040830152949350505050565b6000845161206f818460208901611958565b8083019050605f60f81b808252855161208f816001850160208a01611958565b600192019182015283516120aa816002840160208801611958565b0160020195945050505050565b6060815260006120ca606083018661197c565b82810360208401526120dc818661197c565b905082810360408401526120f0818561197c565b9695505050505050565b634e487b7160e01b600052601160045260246000fd5b600060018201612122576121226120fa565b5060010190565b60008261214657634e487b7160e01b600052601260045260246000fd5b500490565b8181038181111561120e5761120e6120fa565b808202811582820484141761120e5761120e6120fa565b60ff818116838216019081111561120e5761120e6120fa565b634e487b7160e01b600052603260045260246000fdfea26469706673582212202411e2df39a96df2f196eaeddc76b7be01d16a0f5a318ec768ac5808cc1c975464736f6c63430008130033",
  "linkReferences": {},
  "deployedLinkReferences": {}
}