{
  "_format": "hh-sol-artifact-1",
  "contractName": "AccessControl",
  "sourceName": "contracts/AccessControl.sol",
  "abi": [
    {
      "anonymous": false,
      "inputs": [
        {
          "indexed": false,
          "internalType": "string",
          "name": "doctorId",
          "type": "string"
        }
      ],
      "name": "DoctorAuthorized",
      "type": "event"
    },
    {
      "anonymous": false,
      "inputs": [
        {
          "indexed": false,
          "internalType": "string",
          "name": "doctorId",
          "type": "string"
        }
      ],
      "name": "DoctorDeauthorized",
      "type": "event"
    },
    {
      "anonymous": false,
      "inputs": [
        {
          "indexed": false,
          "internalType": "string",
          "name": "doctorId",
          "type": "string"
        },
        {
          "indexed": false,
          "internalType": "string",
          "name": "patientId",
          "type": "string"
        },
        {
          "indexed": false,
          "internalType": "string",
          "name": "reason",
          "type": "string"
        },
        {
          "indexed": false,
          "internalType": "uint256",
          "name": "expiry",
          "type": "uint256"
        }
      ],
      "name": "EmergencyAccessGranted",
      "type": "event"
    },
    {
      "anonymous": false,
      "inputs": [
        {
          "indexed": false,
          "internalType": "string",
          "name": "doctorId",
          "type": "string"
        },
        {
          "indexed": false,
          "internalType": "string",
          "name": "patientId",
          "type": "string"
        }
      ],
      "name": "EmergencyAccessRevoked",
      "type": "event"
    },
    {
      "anonymous": false,
      "inputs": [
        {
          "indexed": true,
          "internalType": "address",
          "name": "previousOwner",
          "type": "address"
        },
        {
          "indexed": true,
          "internalType": "address",
          "name": "newOwner",
          "type": "address"
        }
      ],
      "name": "OwnershipTransferred",
      "type": "event"
    },
    {
      "anonymous": false,
      "inputs": [
        {
          "indexed": false,
          "internalType": "string",
          "name": "patientId",
          "type": "string"
        }
      ],
      "name": "PatientRegistered",
      "type": "event"
    },
    {
      "anonymous": false,
      "inputs": [
        {
          "indexed": false,
          "internalType": "string",
          "name": "patientId",
          "type": "string"
        }
      ],
      "name": "PatientUnregistered",
      "type": "event"
    },
    {
      "anonymous": false,
      "inputs": [
        {
          "indexed": false,
          "internalType": "address",
          "name": "account",
          "type": "address"
        }
      ],
      "name": "Paused",
      "type": "event"
    },
    {
      "anonymous": false,
      "inputs": [
        {
          "indexed": false,
          "internalType": "string",
          "name": "doctorId",
          "type": "string"
        },
        {
          "indexed": false,
          "internalType": "string",
          "name": "patientId",
          "type": "string"
        },
        {
          "indexed": false,
          "internalType": "string",
          "name": "accessLevel",
          "type": "string"
        },
        {
          "indexed": false,
          "internalType": "uint256",
          "name": "expiry",
          "type": "uint256"
        }
      ],
      "name": "PermissionGranted",
      "type": "event"
    },
    {
      "anonymous": false,
      "inputs": [
        {
          "indexed": false,
          "internalType": "string",
          "name": "doctorId",
          "type": "string"
        },
        {
          "indexed": false,
          "internalType": "string",
          "name": "patientId",
          "type": "string"
        }
      ],
      "name": "PermissionRevoked",
      "type": "event"
    },
    {
      "anonymous": false,
      "inputs": [
        {
          "indexed": false,
          "internalType": "address",
          "name": "account",
          "type": "address"
        }
      ],
      "name": "Unpaused",
      "type": "event"
    },
    {
      "inputs": [
        {
          "internalType": "string",
          "name": "doctorId",
          "type": "string"
        }
      ],
      "name": "authorizeDoctor",
      "outputs": [],
      "stateMutability": "nonpayable",
      "type": "function"
    },
    {
      "inputs": [
        {
          "internalType": "string",
          "name": "",
          "type": "string"
        }
      ],
      "name": "authorizedDoctors",
      "outputs": [
        {
          "internalType": "bool",
          "name": "",
          "type": "bool"
        }
      ],
      "stateMutability": "view",
      "type": "function"
    },
    {
      "inputs": [],
      "name": "cleanupExpiredPermissions",
      "outputs": [],
      "stateMutability": "nonpayable",
      "type": "function"
    },
    {
      "inputs": [
        {
          "internalType": "string",
          "name": "doctorId",
          "type": "string"
        }
      ],
      "name": "deauthorizeDoctor",
      "outputs": [],
      "stateMutability": "nonpayable",
      "type": "function"
    },
    {
      "inputs": [
        {
          "internalType": "string",
          "name": "",
          "type": "string"
        },
        {
          "internalType": "uint256",
          "name": "",
          "type": "uint256"
        }
      ],
      "name": "doctorPermissions",
      "outputs": [
        {
          "internalType": "bytes32",
          "name": "",
          "type": "bytes32"
        }
      ],
      "stateMutability": "view",
      "type": "function"
    },
    {
      "inputs": [
        {
          "internalType": "bytes32",
          "name": "",
          "type": "bytes32"
        }
      ],
      "name": "emergencyAccess",
      "outputs": [
        {
          "internalType": "string",
          "name": "doctorId",
          "type": "string"
        },
        {
          "internalType": "string",
          "name": "patientId",
          "type": "string"
        },
        {
          "internalType": "uint256",
          "name": "grantedAt",
          "type": "uint256"
        },
        {
          "internalType": "uint256",
          "name": "expiryDate",
          "type": "uint256"
        },
        {
          "internalType": "bool",
          "name": "isActive",
          "type": "bool"
        },
        {
          "internalType": "string",
          "name": "reason",
          "type": "string"
        }
      ],
      "stateMutability": "view",
      "type": "function"
    },
    {
      "inputs": [
        {
          "internalType": "string",
          "name": "doctorId",
          "type": "string"
        }
      ],
      "name": "getDoctorPermissions",
      "outputs": [
        {
          "internalType": "bytes32[]",
          "name": "",
          "type": "bytes32[]"
        }
      ],
      "stateMutability": "view",
      "type": "function"
    },
    {
      "inputs": [
        {
          "internalType": "string",
          "name": "doctorId",
          "type": "string"
        },
        {
          "internalType": "string",
          "name": "patientId",
          "type": "string"
        }
      ],
      "name": "getEmergencyAccess",
      "outputs": [
        {
          "components": [
            {
              "internalType": "string",
              "name": "doctorId",
              "type": "string"
            },
            {
              "internalType": "string",
              "name": "patientId",
              "type": "string"
            },
            {
              "internalType": "uint256",
              "name": "grantedAt",
              "type": "uint256"
            },
            {
              "internalType": "uint256",
              "name": "expiryDate",
              "type": "uint256"
            },
            {
              "internalType": "bool",
              "name": "isActive",
              "type": "bool"
            },
            {
              "internalType": "string",
              "name": "reason",
              "type": "string"
            }
          ],
          "internalType": "struct AccessControl.EmergencyAccess",
          "name": "",
          "type": "tuple"
        }
      ],
      "stateMutability": "view",
      "type": "function"
    },
    {
      "inputs": [
        {
          "internalType": "string",
          "name": "patientId",
          "type": "string"
        }
      ],
      "name": "getPatientPermissions",
      "outputs": [
        {
          "internalType": "bytes32[]",
          "name": "",
          "type": "bytes32[]"
        }
      ],
      "stateMutability": "view",
      "type": "function"
    },
    {
      "inputs": [
        {
          "internalType": "string",
          "name": "doctorId",
          "type": "string"
        },
        {
          "internalType": "string",
          "name": "patientId",
          "type": "string"
        }
      ],
      "name": "getPermission",
      "outputs": [
        {
          "components": [
            {
              "internalType": "string",
              "name": "doctorId",
              "type": "string"
            },
            {
              "internalType": "string",
              "name": "patientId",
              "type": "string"
            },
            {
              "internalType": "uint256",
              "name": "grantedAt",
              "type": "uint256"
            },
            {
              "internalType": "uint256",
              "name": "expiryDate",
              "type": "uint256"
            },
            {
              "internalType": "bool",
              "name": "isActive",
              "type": "bool"
            },
            {
              "internalType": "string",
              "name": "accessLevel",
              "type": "string"
            }
          ],
          "internalType": "struct AccessControl.Permission",
          "name": "",
          "type": "tuple"
        }
      ],
      "stateMutability": "view",
      "type": "function"
    },
    {
      "inputs": [
        {
          "internalType": "string",
          "name": "doctorId",
          "type": "string"
        },
        {
          "internalType": "string",
          "name": "patientId",
          "type": "string"
        },
        {
          "internalType": "string",
          "name": "reason",
          "type": "string"
        },
        {
          "internalType": "uint256",
          "name": "durationInHours",
          "type": "uint256"
        }
      ],
      "name": "grantEmergencyAccess",
      "outputs": [],
      "stateMutability": "nonpayable",
      "type": "function"
    },
    {
      "inputs": [
        {
          "internalType": "string",
          "name": "doctorId",
          "type": "string"
        },
        {
          "internalType": "string",
          "name": "patientId",
          "type": "string"
        },
        {
          "internalType": "string",
          "name": "accessLevel",
          "type": "string"
        },
        {
          "internalType": "uint256",
          "name": "durationInDays",
          "type": "uint256"
        }
      ],
      "name": "grantPermission",
      "outputs": [],
      "stateMutability": "nonpayable",
      "type": "function"
    },
    {
      "inputs": [
        {
          "internalType": "string",
          "name": "doctorId",
          "type": "string"
        },
        {
          "internalType": "string",
          "name": "patientId",
          "type": "string"
        }
      ],
      "name": "hasEmergencyAccess",
      "outputs": [
        {
          "internalType": "bool",
          "name": "",
          "type": "bool"
        }
      ],
      "stateMutability": "view",
      "type": "function"
    },
    {
      "inputs": [
        {
          "internalType": "string",
          "name": "doctorId",
          "type": "string"
        },
        {
          "internalType": "string",
          "name": "patientId",
          "type": "string"
        }
      ],
      "name": "hasPermission",
      "outputs": [
        {
          "internalType": "bool",
          "name": "",
          "type": "bool"
        },
        {
          "internalType": "string",
          "name": "",
          "type": "string"
        }
      ],
      "stateMutability": "view",
      "type": "function"
    },
    {
      "inputs": [],
      "name": "owner",
      "outputs": [
        {
          "internalType": "address",
          "name": "",
          "type": "address"
        }
      ],
      "stateMutability": "view",
      "type": "function"
    },
    {
      "inputs": [
        {
          "internalType": "string",
          "name": "",
          "type": "string"
        },
        {
          "internalType": "uint256",
          "name": "",
          "type": "uint256"
        }
      ],
      "name": "patientPermissions",
      "outputs": [
        {
          "internalType": "bytes32",
          "name": "",
          "type": "bytes32"
        }
      ],
      "stateMutability": "view",
      "type": "function"
    },
    {
      "inputs": [],
      "name": "pause",
      "outputs": [],
      "stateMutability": "nonpayable",
      "type": "function"
    },
    {
      "inputs": [],
      "name": "paused",
      "outputs": [
        {
          "internalType": "bool",
          "name": "",
          "type": "bool"
        }
      ],
      "stateMutability": "view",
      "type": "function"
    },
    {
      "inputs": [
        {
          "internalType": "bytes32",
          "name": "",
          "type": "bytes32"
        }
      ],
      "name": "permissions",
      "outputs": [
        {
          "internalType": "string",
          "name": "doctorId",
          "type": "string"
        },
        {
          "internalType": "string",
          "name": "patientId",
          "type": "string"
        },
        {
          "internalType": "uint256",
          "name": "grantedAt",
          "type": "uint256"
        },
        {
          "internalType": "uint256",
          "name": "expiryDate",
          "type": "uint256"
        },
        {
          "internalType": "bool",
          "name": "isActive",
          "type": "bool"
        },
        {
          "internalType": "string",
          "name": "accessLevel",
          "type": "string"
        }
      ],
      "stateMutability": "view",
      "type": "function"
    },
    {
      "inputs": [
        {
          "internalType": "string",
          "name": "patientId",
          "type": "string"
        }
      ],
      "name": "registerPatient",
      "outputs": [],
      "stateMutability": "nonpayable",
      "type": "function"
    },
    {
      "inputs": [
        {
          "internalType": "string",
          "name": "",
          "type": "string"
        }
      ],
      "name": "registeredPatients",
      "outputs": [
        {
          "internalType": "bool",
          "name": "",
          "type": "bool"
        }
      ],
      "stateMutability": "view",
      "type": "function"
    },
    {
      "inputs": [],
      "name": "renounceOwnership",
      "outputs": [],
      "stateMutability": "nonpayable",
      "type": "function"
    },
    {
      "inputs": [
        {
          "internalType": "string",
          "name": "doctorId",
          "type": "string"
        },
        {
          "internalType": "string",
          "name": "patientId",
          "type": "string"
        }
      ],
      "name": "revokeEmergencyAccess",
      "outputs": [],
      "stateMutability": "nonpayable",
      "type": "function"
    },
    {
      "inputs": [
        {
          "internalType": "string",
          "name": "doctorId",
          "type": "string"
        },
        {
          "internalType": "string",
          "name": "patientId",
          "type": "string"
        }
      ],
      "name": "revokePermission",
      "outputs": [],
      "stateMutability": "nonpayable",
      "type": "function"
    },
    {
      "inputs": [
        {
          "internalType": "address",
          "name": "newOwner",
          "type": "address"
        }
      ],
      "name": "transferOwnership",
      "outputs": [],
      "stateMutability": "nonpayable",
      "type": "function"
    },
    {
      "inputs": [],
      "name": "unpause",
      "outputs": [],
      "stateMutability": "nonpayable",
      "type": "function"
    },
    {
      "inputs": [
        {
          "internalType": "string",
          "name": "patientId",
          "type": "string"
        }
      ],
      "name": "unregisterPatient",
      "outputs": [],
      "stateMutability": "nonpayable",
      "type": "function"
    }
  ],
  "bytecode": "0x608060405234801561001057600080fd5b5061001a3361002c565b6000805460ff60a01b1916905561007c565b600080546001600160a01b038381166001600160a01b0319831681178455604051919092169283917f8be0079c531659141344cd1fd0a4f28419497f9722a3daafe3b4186f6b6457e09190a35050565b61221c8061008b6000396000f3fe608060405234801561001057600080fd5b50600436106101a95760003560e01c80638456cb59116100f9578063bcc17e4d11610097578063df747e1111610071578063df747e11146103c1578063e9a3cbf4146103d4578063f2fde38b146103e7578063f37488d9146103fa57600080fd5b8063bcc17e4d1461039b578063c766a2d7146103ae578063d62cf5fa146101c157600080fd5b8063a062a1dc116100d3578063a062a1dc1461034f578063a6a0385f14610362578063ac5f9fd014610375578063b4d2388f1461038857600080fd5b80638456cb5914610319578063869c9eaf146103215780638da5cb5b1461033457600080fd5b80634f6dc65411610166578063673501cd11610140578063673501cd146102bd57806368ba8e1e146102eb578063715018a6146102fe578063829bad7f1461030657600080fd5b80634f6dc6541461026a57806355a918d11461028b5780635c975abb146102ab57600080fd5b80630b3ccf32146101ae5780632ead1d1b146101c357806336677f34146101d65780633f4ba83a146102045780634383f59a1461020c5780634b71044d1461022c575b600080fd5b6101c16101bc366004611b9d565b61041b565b005b6101c16101d1366004611b9d565b6104d6565b6101e96101e4366004611bda565b61057d565b6040516101fb96959493929190611c43565b60405180910390f35b6101c1610752565b61021f61021a366004611c9d565b610764565b6040516101fb9190611d72565b61025a61023a366004611b9d565b805160208183018101805160058252928201919093012091525460ff1681565b60405190151581526020016101fb565b61027d610278366004611d8c565b6109ca565b6040519081526020016101fb565b61029e610299366004611b9d565b610a0a565b6040516101fb9190611dd1565b600054600160a01b900460ff1661025a565b61025a6102cb366004611b9d565b805160208183018101805160068252928201919093012091525460ff1681565b61021f6102f9366004611c9d565b610a7a565b6101c1610b09565b6101c1610314366004611e15565b610b1b565b6101c1610d40565b6101c161032f366004611b9d565b610d50565b6000546040516001600160a01b0390911681526020016101fb565b6101c161035d366004611c9d565b610e28565b61027d610370366004611d8c565b610f23565b6101c1610383366004611c9d565b610f4e565b6101e9610396366004611bda565b611030565b6101c16103a9366004611e15565b61104b565b61025a6103bc366004611c9d565b6112c3565b6101c16103cf366004611b9d565b611526565b61029e6103e2366004611b9d565b6115fe565b6101c16103f5366004611ea5565b611610565b61040d610408366004611c9d565b611689565b6040516101fb929190611ece565b61042361191b565b6005816040516104339190611ee9565b9081526040519081900360200190205460ff1661046b5760405162461bcd60e51b815260040161046290611f05565b60405180910390fd5b600060058260405161047d9190611ee9565b908152604051908190036020018120805492151560ff19909316929092179091557f5c17ef6961de48fb6b7a503e51dd364b22c4ddb6b35c724e524cb9216ad5f587906104cb908390611f34565b60405180910390a150565b6104de61191b565b6006816040516104ee9190611ee9565b9081526040519081900360200190205460ff1661051d5760405162461bcd60e51b815260040161046290611f47565b600060068260405161052f9190611ee9565b908152604051908190036020018120805492151560ff19909316929092179091557fb2abc52e6afbb9a7ffcf2ccdd26e4fdf743b65debf8ec87ab1650a4fff742ca6906104cb908390611f34565b60026020526000908152604090208054819061059890611f77565b80601f01602080910402602001604051908101604052809291908181526020018280546105c490611f77565b80156106115780601f106105e657610100808354040283529160200191610611565b820191906000526020600020905b8154815290600101906020018083116105f457829003601f168201915b50505050509080600101805461062690611f77565b80601f016020809104026020016040519081016040528092919081815260200182805461065290611f77565b801561069f5780601f106106745761010080835404028352916020019161069f565b820191906000526020600020905b81548152906001019060200180831161068257829003601f168201915b5050506002840154600385015460048601546005870180549697939692955060ff9091169350906106cf90611f77565b80601f01602080910402602001604051908101604052809291908181526020018280546106fb90611f77565b80156107485780601f1061071d57610100808354040283529160200191610748565b820191906000526020600020905b81548152906001019060200180831161072b57829003601f168201915b5050505050905086565b61075a61191b565b610762611975565b565b61079f6040518060c0016040528060608152602001606081526020016000815260200160008152602001600015158152602001606081525090565b600083836040516020016107b4929190611fb1565b60408051601f198184030181528282528051602091820120600081815260029092529082902060c084019092528154909350829082906107f390611f77565b80601f016020809104026020016040519081016040528092919081815260200182805461081f90611f77565b801561086c5780601f106108415761010080835404028352916020019161086c565b820191906000526020600020905b81548152906001019060200180831161084f57829003601f168201915b5050505050815260200160018201805461088590611f77565b80601f01602080910402602001604051908101604052809291908181526020018280546108b190611f77565b80156108fe5780601f106108d3576101008083540402835291602001916108fe565b820191906000526020600020905b8154815290600101906020018083116108e157829003601f168201915b50505091835250506002820154602082015260038201546040820152600482015460ff161515606082015260058201805460809092019161093e90611f77565b80601f016020809104026020016040519081016040528092919081815260200182805461096a90611f77565b80156109b75780601f1061098c576101008083540402835291602001916109b7565b820191906000526020600020905b81548152906001019060200180831161099a57829003601f168201915b5050505050815250509150505b92915050565b815160208184018101805160038252928201918501919091209190528054829081106109f557600080fd5b90600052602060002001600091509150505481565b6060600482604051610a1c9190611ee9565b9081526040805191829003602090810183208054808302850183019093528284529190830182828015610a6e57602002820191906000526020600020905b815481526020019060010190808311610a5a575b50505050509050919050565b610ab56040518060c0016040528060608152602001606081526020016000815260200160008152602001600015158152602001606081525090565b60008383604051602001610aca929190611ff8565b60408051601f198184030181528282528051602091820120600081815260019092529082902060c084019092528154909350829082906107f390611f77565b610b1161191b565b61076260006119ca565b610b2361191b565b83600581604051610b349190611ee9565b9081526040519081900360200190205460ff16610b635760405162461bcd60e51b815260040161046290611f05565b83600681604051610b749190611ee9565b9081526040519081900360200190205460ff16610ba35760405162461bcd60e51b815260040161046290611f47565b60008686604051602001610bb8929190611fb1565b60408051601f1981840301815291815281516020928301206000818152600290935291206004015490915060ff1615610c335760405162461bcd60e51b815260206004820152601f60248201527f456d657267656e63792061636365737320616c726561647920657869737473006044820152606401610462565b6000610c4185610e1061203d565b610c4b9042612054565b6040805160c0810182528a815260208082018b90524282840152606082018490526001608083015260a082018a90526000868152600290915291909120815192935090918291908190610c9e90826120b6565b5060208201516001820190610cb390826120b6565b506040820151600282015560608201516003820155608082015160048201805460ff191691151591909117905560a08201516005820190610cf490826120b6565b509050507ff619b1151f38844a83f6bd52e5d4bc49a0fa946fd0d79141fe864cb43aae650d89898985604051610d2d9493929190612176565b60405180910390a1505050505050505050565b610d4861191b565b610762611a1a565b610d5861191b565b600681604051610d689190611ee9565b9081526040519081900360200190205460ff1615610dc85760405162461bcd60e51b815260206004820152601a60248201527f50617469656e7420616c726561647920726567697374657265640000000000006044820152606401610462565b6001600682604051610dda9190611ee9565b908152604051908190036020018120805492151560ff19909316929092179091557fad3e1c33e6905fbc7821165aef0e1e95f461dee673e49d56d8899c384dbdcd16906104cb908390611f34565b610e3061191b565b60008282604051602001610e45929190611fb1565b60408051601f1981840301815291815281516020928301206000818152600290935291206004015490915060ff16610ecb5760405162461bcd60e51b8152602060048201526024808201527f4e6f2061637469766520656d657267656e63792061636365737320746f207265604482015263766f6b6560e01b6064820152608401610462565b60008181526002602052604090819020600401805460ff19169055517f8f3eb9639940a2d25f76a6001cc74e3fd37d48307ce71d21bcae68cea6ac06ff90610f1690859085906121c1565b60405180910390a1505050565b815160208184018101805160048252928201918501919091209190528054829081106109f557600080fd5b610f5661191b565b60008282604051602001610f6b929190611ff8565b60408051601f1981840301815291815281516020928301206000818152600190935291206004015490915060ff16610fe55760405162461bcd60e51b815260206004820152601e60248201527f4e6f20616374697665207065726d697373696f6e20746f207265766f6b6500006044820152606401610462565b60008181526001602052604090819020600401805460ff19169055517f213e0e506c4dc293f81607cd7c386e8054c30488dec51469ff3fddcc5f3ad70c90610f1690859085906121c1565b60016020526000908152604090208054819061059890611f77565b61105361191b565b836005816040516110649190611ee9565b9081526040519081900360200190205460ff166110935760405162461bcd60e51b815260040161046290611f05565b836006816040516110a49190611ee9565b9081526040519081900360200190205460ff166110d35760405162461bcd60e51b815260040161046290611f47565b600086866040516020016110e8929190611ff8565b60408051601f1981840301815291815281516020928301206000818152600190935291206004015490915060ff16156111635760405162461bcd60e51b815260206004820152601960248201527f5065726d697373696f6e20616c726561647920657869737473000000000000006044820152606401610462565b6000611172856201518061203d565b61117c9042612054565b6040805160c0810182528a815260208082018b905242828401526060820184905260016080830181905260a083018b905260008781529152919091208151929350909182919081906111ce90826120b6565b50602082015160018201906111e390826120b6565b506040820151600282015560608201516003820155608082015160048201805460ff191691151591909117905560a0820151600582019061122490826120b6565b509050506003886040516112389190611ee9565b9081526040519081900360209081018220805460018101825560009182529190200184905560049061126b908b90611ee9565b908152604051908190036020908101822080546001810182556000918252919020018490557fac681cd48342592da7fee50b3dd387a95af0dc07da54166a99e8ba9e302600b490610d2d908b908b908b908790612176565b60008083836040516020016112d9929190611fb1565b6040516020818303038152906040528051906020012090506000600260008381526020019081526020016000206040518060c001604052908160008201805461132190611f77565b80601f016020809104026020016040519081016040528092919081815260200182805461134d90611f77565b801561139a5780601f1061136f5761010080835404028352916020019161139a565b820191906000526020600020905b81548152906001019060200180831161137d57829003601f168201915b505050505081526020016001820180546113b390611f77565b80601f01602080910402602001604051908101604052809291908181526020018280546113df90611f77565b801561142c5780601f106114015761010080835404028352916020019161142c565b820191906000526020600020905b81548152906001019060200180831161140f57829003601f168201915b50505091835250506002820154602082015260038201546040820152600482015460ff161515606082015260058201805460809092019161146c90611f77565b80601f016020809104026020016040519081016040528092919081815260200182805461149890611f77565b80156114e55780601f106114ba576101008083540402835291602001916114e5565b820191906000526020600020905b8154815290600101906020018083116114c857829003601f168201915b50505050508152505090508060800151611504576000925050506109c4565b806060015142111561151b576000925050506109c4565b506001949350505050565b61152e61191b565b60058160405161153e9190611ee9565b9081526040519081900360200190205460ff161561159e5760405162461bcd60e51b815260206004820152601960248201527f446f63746f7220616c726561647920617574686f72697a6564000000000000006044820152606401610462565b60016005826040516115b09190611ee9565b908152604051908190036020018120805492151560ff19909316929092179091557fc91c358e8a061e0449a2faf2f43a7694ba2fe2880f4d23109ce60b5659241d32906104cb908390611f34565b6060600382604051610a1c9190611ee9565b61161861191b565b6001600160a01b03811661167d5760405162461bcd60e51b815260206004820152602660248201527f4f776e61626c653a206e6577206f776e657220697320746865207a65726f206160448201526564647265737360d01b6064820152608401610462565b611686816119ca565b50565b60006060600084846040516020016116a2929190611ff8565b6040516020818303038152906040528051906020012090506000600160008381526020019081526020016000206040518060c00160405290816000820180546116ea90611f77565b80601f016020809104026020016040519081016040528092919081815260200182805461171690611f77565b80156117635780601f1061173857610100808354040283529160200191611763565b820191906000526020600020905b81548152906001019060200180831161174657829003601f168201915b5050505050815260200160018201805461177c90611f77565b80601f01602080910402602001604051908101604052809291908181526020018280546117a890611f77565b80156117f55780601f106117ca576101008083540402835291602001916117f5565b820191906000526020600020905b8154815290600101906020018083116117d857829003601f168201915b50505091835250506002820154602082015260038201546040820152600482015460ff161515606082015260058201805460809092019161183590611f77565b80601f016020809104026020016040519081016040528092919081815260200182805461186190611f77565b80156118ae5780601f10611883576101008083540402835291602001916118ae565b820191906000526020600020905b81548152906001019060200180831161189157829003601f168201915b505050505081525050905080608001516118df57600060405180602001604052806000815250935093505050611914565b806060015142111561190857600060405180602001604052806000815250935093505050611914565b60a00151600193509150505b9250929050565b6000546001600160a01b031633146107625760405162461bcd60e51b815260206004820181905260248201527f4f776e61626c653a2063616c6c6572206973206e6f7420746865206f776e65726044820152606401610462565b61197d611a5d565b6000805460ff60a01b191690557f5db9ee0a495bf2e6ff9c91a7834c1ba4fdd244a5e8aa4e537bd38aeae4b073aa335b6040516001600160a01b03909116815260200160405180910390a1565b600080546001600160a01b038381166001600160a01b0319831681178455604051919092169283917f8be0079c531659141344cd1fd0a4f28419497f9722a3daafe3b4186f6b6457e09190a35050565b611a22611aad565b6000805460ff60a01b1916600160a01b1790557f62e78cea01bee320cd4e420270b5ea74000d11b0c9f74754ebdbfc544b05a2586119ad3390565b600054600160a01b900460ff166107625760405162461bcd60e51b815260206004820152601460248201527314185d5cd8589b194e881b9bdd081c185d5cd95960621b6044820152606401610462565b600054600160a01b900460ff16156107625760405162461bcd60e51b815260206004820152601060248201526f14185d5cd8589b194e881c185d5cd95960821b6044820152606401610462565b634e487b7160e01b600052604160045260246000fd5b600082601f830112611b2157600080fd5b813567ffffffffffffffff80821115611b3c57611b3c611afa565b604051601f8301601f19908116603f01168101908282118183101715611b6457611b64611afa565b81604052838152866020858801011115611b7d57600080fd5b836020870160208301376000602085830101528094505050505092915050565b600060208284031215611baf57600080fd5b813567ffffffffffffffff811115611bc657600080fd5b611bd284828501611b10565b949350505050565b600060208284031215611bec57600080fd5b5035919050565b60005b83811015611c0e578181015183820152602001611bf6565b50506000910152565b60008151808452611c2f816020860160208601611bf3565b601f01601f19169290920160200192915050565b60c081526000611c5660c0830189611c17565b8281036020840152611c688189611c17565b9050866040840152856060840152841515608084015282810360a0840152611c908185611c17565b9998505050505050505050565b60008060408385031215611cb057600080fd5b823567ffffffffffffffff80821115611cc857600080fd5b611cd486838701611b10565b93506020850135915080821115611cea57600080fd5b50611cf785828601611b10565b9150509250929050565b6000815160c08452611d1660c0850182611c17565b905060208301518482036020860152611d2f8282611c17565b915050604083015160408501526060830151606085015260808301511515608085015260a083015184820360a0860152611d698282611c17565b95945050505050565b602081526000611d856020830184611d01565b9392505050565b60008060408385031215611d9f57600080fd5b823567ffffffffffffffff811115611db657600080fd5b611dc285828601611b10565b95602094909401359450505050565b6020808252825182820181905260009190848201906040850190845b81811015611e0957835183529284019291840191600101611ded565b50909695505050505050565b60008060008060808587031215611e2b57600080fd5b843567ffffffffffffffff80821115611e4357600080fd5b611e4f88838901611b10565b95506020870135915080821115611e6557600080fd5b611e7188838901611b10565b94506040870135915080821115611e8757600080fd5b50611e9487828801611b10565b949793965093946060013593505050565b600060208284031215611eb757600080fd5b81356001600160a01b0381168114611d8557600080fd5b8215158152604060208201526000611bd26040830184611c17565b60008251611efb818460208701611bf3565b9190910192915050565b602080825260159082015274111bd8dd1bdc881b9bdd08185d5d1a1bdc9a5e9959605a1b604082015260600190565b602081526000611d856020830184611c17565b60208082526016908201527514185d1a595b9d081b9bdd081c9959da5cdd195c995960521b604082015260600190565b600181811c90821680611f8b57607f821691505b602082108103611fab57634e487b7160e01b600052602260045260246000fd5b50919050565b68656d657267656e637960b81b815260008351611fd5816009850160208801611bf3565b835190830190611fec816009840160208801611bf3565b01600901949350505050565b6000835161200a818460208801611bf3565b83519083019061201e818360208801611bf3565b01949350505050565b634e487b7160e01b600052601160045260246000fd5b80820281158282048414176109c4576109c4612027565b808201808211156109c4576109c4612027565b601f8211156120b157600081815260208120601f850160051c8101602086101561208e5750805b601f850160051c820191505b818110156120ad5782815560010161209a565b5050505b505050565b815167ffffffffffffffff8111156120d0576120d0611afa565b6120e4816120de8454611f77565b84612067565b602080601f83116001811461211957600084156121015750858301515b600019600386901b1c1916600185901b1785556120ad565b600085815260208120601f198616915b8281101561214857888601518255948401946001909101908401612129565b50858210156121665787850151600019600388901b60f8161c191681555b5050505050600190811b01905550565b6080815260006121896080830187611c17565b828103602084015261219b8187611c17565b905082810360408401526121af8186611c17565b91505082606083015295945050505050565b6040815260006121d46040830185611c17565b8281036020840152611d698185611c1756fea26469706673582212209cd1caad7221527d6c0ffc3bf4079bedacc18c0dad24aa39dc220746dc7f473e64736f6c63430008130033",
  "linkReferences": {},
  "deployedLinkReferences": {}
}