{
  "_format": "hh-sol-artifact-1",
  "contractName": "HealthRecord",
  "sourceName": "contracts/HealthRecord.sol",
  "abi": [
    {
      "anonymous": false,
      "inputs": [
        {
          "indexed": false,
          "internalType": "string",
          "name": "doctorId",
          "type": "string"
        },
        {
          "indexed": false,
          "internalType": "string",
          "name": "patientId",
          "type": "string"
        }
      ],
      "name": "AccessGranted",
      "type": "event"
    },
    {
      "anonymous": false,
      "inputs": [
        {
          "indexed": false,
          "internalType": "string",
          "name": "doctorId",
          "type": "string"
        },
        {
          "indexed": false,
          "internalType": "string",
          "name": "patientId",
          "type": "string"
        }
      ],
      "name": "AccessRevoked",
      "type": "event"
    },
    {
      "anonymous": false,
      "inputs": [
        {
          "indexed": false,
          "internalType": "string",
          "name": "doctorId",
          "type": "string"
        },
        {
          "indexed": false,
          "internalType": "string",
          "name": "name",
          "type": "string"
        },
        {
          "indexed": false,
          "internalType": "string",
          "name": "specialization",
          "type": "string"
        }
      ],
      "name": "DoctorRegistered",
      "type": "event"
    },
    {
      "anonymous": false,
      "inputs": [
        {
          "indexed": true,
          "internalType": "address",
          "name": "previousOwner",
          "type": "address"
        },
        {
          "indexed": true,
          "internalType": "address",
          "name": "newOwner",
          "type": "address"
        }
      ],
      "name": "OwnershipTransferred",
      "type": "event"
    },
    {
      "anonymous": false,
      "inputs": [
        {
          "indexed": false,
          "internalType": "string",
          "name": "patientId",
          "type": "string"
        },
        {
          "indexed": false,
          "internalType": "string",
          "name": "name",
          "type": "string"
        }
      ],
      "name": "PatientRegistered",
      "type": "event"
    },
    {
      "anonymous": false,
      "inputs": [
        {
          "indexed": false,
          "internalType": "address",
          "name": "account",
          "type": "address"
        }
      ],
      "name": "Paused",
      "type": "event"
    },
    {
      "anonymous": false,
      "inputs": [
        {
          "indexed": true,
          "internalType": "uint256",
          "name": "recordId",
          "type": "uint256"
        },
        {
          "indexed": false,
          "internalType": "string",
          "name": "patientId",
          "type": "string"
        },
        {
          "indexed": false,
          "internalType": "string",
          "name": "doctorId",
          "type": "string"
        },
        {
          "indexed": false,
          "internalType": "string",
          "name": "dataHash",
          "type": "string"
        }
      ],
      "name": "RecordAdded",
      "type": "event"
    },
    {
      "anonymous": false,
      "inputs": [
        {
          "indexed": true,
          "internalType": "uint256",
          "name": "recordId",
          "type": "uint256"
        }
      ],
      "name": "RecordInvalidated",
      "type": "event"
    },
    {
      "anonymous": false,
      "inputs": [
        {
          "indexed": true,
          "internalType": "uint256",
          "name": "recordId",
          "type": "uint256"
        },
        {
          "indexed": false,
          "internalType": "string",
          "name": "dataHash",
          "type": "string"
        }
      ],
      "name": "RecordUpdated",
      "type": "event"
    },
    {
      "anonymous": false,
      "inputs": [
        {
          "indexed": false,
          "internalType": "address",
          "name": "account",
          "type": "address"
        }
      ],
      "name": "Unpaused",
      "type": "event"
    },
    {
      "inputs": [
        {
          "internalType": "string",
          "name": "patientId",
          "type": "string"
        },
        {
          "internalType": "string",
          "name": "doctorId",
          "type": "string"
        },
        {
          "internalType": "string",
          "name": "dataHash",
          "type": "string"
        },
        {
          "internalType": "string",
          "name": "metadataHash",
          "type": "string"
        },
        {
          "internalType": "bool",
          "name": "isEncrypted",
          "type": "bool"
        }
      ],
      "name": "addHealthRecord",
      "outputs": [],
      "stateMutability": "nonpayable",
      "type": "function"
    },
    {
      "inputs": [
        {
          "internalType": "bytes32",
          "name": "recordKey",
          "type": "bytes32"
        }
      ],
      "name": "checkRecordExists",
      "outputs": [
        {
          "internalType": "bool",
          "name": "",
          "type": "bool"
        }
      ],
      "stateMutability": "view",
      "type": "function"
    },
    {
      "inputs": [
        {
          "internalType": "string",
          "name": "username",
          "type": "string"
        }
      ],
      "name": "checkUsernameExists",
      "outputs": [
        {
          "internalType": "bool",
          "name": "",
          "type": "bool"
        }
      ],
      "stateMutability": "view",
      "type": "function"
    },
    {
      "inputs": [
        {
          "internalType": "string",
          "name": "",
          "type": "string"
        },
        {
          "internalType": "uint256",
          "name": "",
          "type": "uint256"
        }
      ],
      "name": "doctorRecords",
      "outputs": [
        {
          "internalType": "uint256",
          "name": "",
          "type": "uint256"
        }
      ],
      "stateMutability": "view",
      "type": "function"
    },
    {
      "inputs": [
        {
          "internalType": "string",
          "name": "",
          "type": "string"
        }
      ],
      "name": "doctors",
      "outputs": [
        {
          "internalType": "string",
          "name": "doctorId",
          "type": "string"
        },
        {
          "internalType": "string",
          "name": "name",
          "type": "string"
        },
        {
          "internalType": "string",
          "name": "username",
          "type": "string"
        },
        {
          "internalType": "string",
          "name": "specialization",
          "type": "string"
        },
        {
          "internalType": "bool",
          "name": "isAuthorized",
          "type": "bool"
        },
        {
          "internalType": "uint256",
          "name": "registrationDate",
          "type": "uint256"
        }
      ],
      "stateMutability": "view",
      "type": "function"
    },
    {
      "inputs": [
        {
          "internalType": "string",
          "name": "doctorId",
          "type": "string"
        }
      ],
      "name": "getDoctor",
      "outputs": [
        {
          "components": [
            {
              "internalType": "string",
              "name": "doctorId",
              "type": "string"
            },
            {
              "internalType": "string",
              "name": "name",
              "type": "string"
            },
            {
              "internalType": "string",
              "name": "username",
              "type": "string"
            },
            {
              "internalType": "string",
              "name": "specialization",
              "type": "string"
            },
            {
              "internalType": "bool",
              "name": "isAuthorized",
              "type": "bool"
            },
            {
              "internalType": "uint256",
              "name": "registrationDate",
              "type": "uint256"
            }
          ],
          "internalType": "struct HealthRecord.Doctor",
          "name": "",
          "type": "tuple"
        }
      ],
      "stateMutability": "view",
      "type": "function"
    },
    {
      "inputs": [
        {
          "internalType": "string",
          "name": "doctorId",
          "type": "string"
        }
      ],
      "name": "getDoctorRecords",
      "outputs": [
        {
          "internalType": "uint256[]",
          "name": "",
          "type": "uint256[]"
        }
      ],
      "stateMutability": "view",
      "type": "function"
    },
    {
      "inputs": [
        {
          "internalType": "uint256",
          "name": "recordId",
          "type": "uint256"
        }
      ],
      "name": "getHealthRecord",
      "outputs": [
        {
          "components": [
            {
              "internalType": "uint256",
              "name": "recordId",
              "type": "uint256"
            },
            {
              "internalType": "string",
              "name": "patientId",
              "type": "string"
            },
            {
              "internalType": "string",
              "name": "doctorId",
              "type": "string"
            },
            {
              "internalType": "string",
              "name": "dataHash",
              "type": "string"
            },
            {
              "internalType": "string",
              "name": "metadataHash",
              "type": "string"
            },
            {
              "internalType": "uint256",
              "name": "timestamp",
              "type": "uint256"
            },
            {
              "internalType": "bool",
              "name": "isValid",
              "type": "bool"
            },
            {
              "internalType": "bool",
              "name": "isEncrypted",
              "type": "bool"
            }
          ],
          "internalType": "struct HealthRecord.HealthRecordData",
          "name": "",
          "type": "tuple"
        }
      ],
      "stateMutability": "view",
      "type": "function"
    },
    {
      "inputs": [
        {
          "internalType": "string",
          "name": "patientId",
          "type": "string"
        }
      ],
      "name": "getPatient",
      "outputs": [
        {
          "components": [
            {
              "internalType": "string",
              "name": "patientId",
              "type": "string"
            },
            {
              "internalType": "string",
              "name": "name",
              "type": "string"
            },
            {
              "internalType": "string",
              "name": "username",
              "type": "string"
            },
            {
              "internalType": "bool",
              "name": "isRegistered",
              "type": "bool"
            },
            {
              "internalType": "uint256",
              "name": "registrationDate",
              "type": "uint256"
            }
          ],
          "internalType": "struct HealthRecord.Patient",
          "name": "",
          "type": "tuple"
        }
      ],
      "stateMutability": "view",
      "type": "function"
    },
    {
      "inputs": [
        {
          "internalType": "string",
          "name": "patientId",
          "type": "string"
        }
      ],
      "name": "getPatientRecords",
      "outputs": [
        {
          "internalType": "uint256[]",
          "name": "",
          "type": "uint256[]"
        }
      ],
      "stateMutability": "view",
      "type": "function"
    },
    {
      "inputs": [
        {
          "internalType": "string",
          "name": "username",
          "type": "string"
        }
      ],
      "name": "getUserByUsername",
      "outputs": [
        {
          "internalType": "string",
          "name": "userId",
          "type": "string"
        },
        {
          "internalType": "string",
          "name": "role",
          "type": "string"
        }
      ],
      "stateMutability": "view",
      "type": "function"
    },
    {
      "inputs": [
        {
          "internalType": "string",
          "name": "username",
          "type": "string"
        }
      ],
      "name": "getUserIdByUsername",
      "outputs": [
        {
          "internalType": "string",
          "name": "",
          "type": "string"
        }
      ],
      "stateMutability": "view",
      "type": "function"
    },
    {
      "inputs": [
        {
          "internalType": "uint256",
          "name": "",
          "type": "uint256"
        }
      ],
      "name": "healthRecords",
      "outputs": [
        {
          "internalType": "uint256",
          "name": "recordId",
          "type": "uint256"
        },
        {
          "internalType": "string",
          "name": "patientId",
          "type": "string"
        },
        {
          "internalType": "string",
          "name": "doctorId",
          "type": "string"
        },
        {
          "internalType": "string",
          "name": "dataHash",
          "type": "string"
        },
        {
          "internalType": "string",
          "name": "metadataHash",
          "type": "string"
        },
        {
          "internalType": "uint256",
          "name": "timestamp",
          "type": "uint256"
        },
        {
          "internalType": "bool",
          "name": "isValid",
          "type": "bool"
        },
        {
          "internalType": "bool",
          "name": "isEncrypted",
          "type": "bool"
        }
      ],
      "stateMutability": "view",
      "type": "function"
    },
    {
      "inputs": [
        {
          "internalType": "uint256",
          "name": "recordId",
          "type": "uint256"
        }
      ],
      "name": "invalidateRecord",
      "outputs": [],
      "stateMutability": "nonpayable",
      "type": "function"
    },
    {
      "inputs": [],
      "name": "owner",
      "outputs": [
        {
          "internalType": "address",
          "name": "",
          "type": "address"
        }
      ],
      "stateMutability": "view",
      "type": "function"
    },
    {
      "inputs": [
        {
          "internalType": "string",
          "name": "",
          "type": "string"
        },
        {
          "internalType": "uint256",
          "name": "",
          "type": "uint256"
        }
      ],
      "name": "patientRecords",
      "outputs": [
        {
          "internalType": "uint256",
          "name": "",
          "type": "uint256"
        }
      ],
      "stateMutability": "view",
      "type": "function"
    },
    {
      "inputs": [
        {
          "internalType": "string",
          "name": "",
          "type": "string"
        }
      ],
      "name": "patients",
      "outputs": [
        {
          "internalType": "string",
          "name": "patientId",
          "type": "string"
        },
        {
          "internalType": "string",
          "name": "name",
          "type": "string"
        },
        {
          "internalType": "string",
          "name": "username",
          "type": "string"
        },
        {
          "internalType": "bool",
          "name": "isRegistered",
          "type": "bool"
        },
        {
          "internalType": "uint256",
          "name": "registrationDate",
          "type": "uint256"
        }
      ],
      "stateMutability": "view",
      "type": "function"
    },
    {
      "inputs": [],
      "name": "pause",
      "outputs": [],
      "stateMutability": "nonpayable",
      "type": "function"
    },
    {
      "inputs": [],
      "name": "paused",
      "outputs": [
        {
          "internalType": "bool",
          "name": "",
          "type": "bool"
        }
      ],
      "stateMutability": "view",
      "type": "function"
    },
    {
      "inputs": [
        {
          "internalType": "bytes32",
          "name": "",
          "type": "bytes32"
        }
      ],
      "name": "recordExists",
      "outputs": [
        {
          "internalType": "bool",
          "name": "",
          "type": "bool"
        }
      ],
      "stateMutability": "view",
      "type": "function"
    },
    {
      "inputs": [
        {
          "internalType": "string",
          "name": "doctorId",
          "type": "string"
        },
        {
          "internalType": "string",
          "name": "name",
          "type": "string"
        },
        {
          "internalType": "string",
          "name": "username",
          "type": "string"
        },
        {
          "internalType": "string",
          "name": "specialization",
          "type": "string"
        }
      ],
      "name": "registerDoctor",
      "outputs": [],
      "stateMutability": "nonpayable",
      "type": "function"
    },
    {
      "inputs": [
        {
          "internalType": "string",
          "name": "patientId",
          "type": "string"
        },
        {
          "internalType": "string",
          "name": "name",
          "type": "string"
        },
        {
          "internalType": "string",
          "name": "username",
          "type": "string"
        }
      ],
      "name": "registerPatient",
      "outputs": [],
      "stateMutability": "nonpayable",
      "type": "function"
    },
    {
      "inputs": [],
      "name": "renounceOwnership",
      "outputs": [],
      "stateMutability": "nonpayable",
      "type": "function"
    },
    {
      "inputs": [
        {
          "internalType": "address",
          "name": "newOwner",
          "type": "address"
        }
      ],
      "name": "transferOwnership",
      "outputs": [],
      "stateMutability": "nonpayable",
      "type": "function"
    },
    {
      "inputs": [],
      "name": "unpause",
      "outputs": [],
      "stateMutability": "nonpayable",
      "type": "function"
    },
    {
      "inputs": [
        {
          "internalType": "uint256",
          "name": "recordId",
          "type": "uint256"
        },
        {
          "internalType": "string",
          "name": "newDataHash",
          "type": "string"
        },
        {
          "internalType": "string",
          "name": "newMetadataHash",
          "type": "string"
        }
      ],
      "name": "updateHealthRecord",
      "outputs": [],
      "stateMutability": "nonpayable",
      "type": "function"
    },
    {
      "inputs": [
        {
          "internalType": "string",
          "name": "",
          "type": "string"
        }
      ],
      "name": "usernameExists",
      "outputs": [
        {
          "internalType": "bool",
          "name": "",
          "type": "bool"
        }
      ],
      "stateMutability": "view",
      "type": "function"
    },
    {
      "inputs": [
        {
          "internalType": "string",
          "name": "",
          "type": "string"
        }
      ],
      "name": "usernameToUserId",
      "outputs": [
        {
          "internalType": "string",
          "name": "",
          "type": "string"
        }
      ],
      "stateMutability": "view",
      "type": "function"
    }
  ],
  "bytecode": "0x608060405234801561001057600080fd5b5061001a3361002c565b6000805460ff60a01b1916905561007c565b600080546001600160a01b038381166001600160a01b0319831681178455604051919092169283917f8be0079c531659141344cd1fd0a4f28419497f9722a3daafe3b4186f6b6457e09190a35050565b612dae806200008c6000396000f3fe608060405234801561001057600080fd5b50600436106101c45760003560e01c80638456cb59116100f9578063be65437a11610097578063f0941d0511610071578063f0941d051461042e578063f2fde38b14610441578063f309e3f914610454578063f79fe5381461048257600080fd5b8063be65437a146103d7578063c6009d84146103ea578063e79a7a2e1461040e57600080fd5b8063a3a178e7116100d3578063a3a178e714610367578063b665c0d31461037a578063b8a751df146103a1578063bb12540a146103b457600080fd5b80638456cb59146103235780638da5cb5b1461032b5780639f42af631461034657600080fd5b80635bbe446a11610166578063604990921161014057806360499092146102c857806367c47041146102e8578063715018a6146102fb578063839e87621461030357600080fd5b80635bbe446a146102775780635c975abb1461028a5780635cd40af5146102a857600080fd5b806333a8587f116101a257806333a8587f146102295780633989dd481461023c5780633f4ba83a1461025c578063545b88d01461026457600080fd5b806304b64c91146101c957806305c35ce5146101ef5780630ef4e85614610214575b600080fd5b6101dc6101d7366004612451565b6104a5565b6040519081526020015b60405180910390f35b6102026101fd366004612496565b6104e5565b6040516101e696959493929190612523565b610227610222366004612586565b610748565b005b6102276102373660046125f3565b6108fd565b61024f61024a366004612496565b610b42565b6040516101e691906126a0565b610227610be7565b6102276102723660046126ba565b610bf9565b610227610285366004612781565b610ec4565b600054600160a01b900460ff165b60405190151581526020016101e6565b6102bb6102b6366004612496565b610f6b565b6040516101e6919061279a565b6102db6102d6366004612496565b610fdb565b6040516101e691906127de565b6102bb6102f6366004612496565b6112a7565b6102276112b9565b610316610311366004612781565b6112cb565b6040516101e69190612876565b6102276115b8565b6000546040516001600160a01b0390911681526020016101e6565b610359610354366004612496565b6115c8565b6040516101e692919061292f565b610298610375366004612496565b6117c3565b61038d610388366004612781565b6117ee565b6040516101e698979695949392919061295d565b6101dc6103af366004612451565b611a56565b6102986103c2366004612781565b60009081526007602052604090205460ff1690565b6102276103e53660046129d6565b611a81565b6103fd6103f8366004612496565b611ca8565b6040516101e6959493929190612a25565b61042161041c366004612496565b611e7d565b6040516101e69190612a73565b61024f61043c366004612496565b6120b0565b61022761044f366004612aee565b612156565b610298610462366004612496565b805160208183018101805160098252928201919093012091525460ff1681565b610298610490366004612781565b60076020526000908152604090205460ff1681565b815160208184018101805160068252928201918501919091209190528054829081106104d057600080fd5b90600052602060002001600091509150505481565b805160208183018101805160038252928201919093012091528054819061050b90612b17565b80601f016020809104026020016040519081016040528092919081815260200182805461053790612b17565b80156105845780601f1061055957610100808354040283529160200191610584565b820191906000526020600020905b81548152906001019060200180831161056757829003601f168201915b50505050509080600101805461059990612b17565b80601f01602080910402602001604051908101604052809291908181526020018280546105c590612b17565b80156106125780601f106105e757610100808354040283529160200191610612565b820191906000526020600020905b8154815290600101906020018083116105f557829003601f168201915b50505050509080600201805461062790612b17565b80601f016020809104026020016040519081016040528092919081815260200182805461065390612b17565b80156106a05780601f10610675576101008083540402835291602001916106a0565b820191906000526020600020905b81548152906001019060200180831161068357829003601f168201915b5050505050908060030180546106b590612b17565b80601f01602080910402602001604051908101604052809291908181526020018280546106e190612b17565b801561072e5780601f106107035761010080835404028352916020019161072e565b820191906000526020600020905b81548152906001019060200180831161071157829003601f168201915b505050506004830154600590930154919260ff1691905086565b600083815260026020526040902060060154839060ff166107a85760405162461bcd60e51b8152602060048201526015602482015274149958dbdc9908191bd95cc81b9bdd08195e1a5cdd605a1b60448201526064015b60405180910390fd5b60008481526002602081815260409283902092516107c99284019101612b51565b60408051808303601f1901815282825280516020918201203360601b6bffffffffffffffffffffffff1916828501528251601481860301815260349094019092528251920191909120148061083757503361082c6000546001600160a01b031690565b6001600160a01b0316145b6108985760405162461bcd60e51b815260206004820152602c60248201527f4f6e6c7920746865206f726967696e616c20646f63746f72206f72206f776e6560448201526b722063616e2075706461746560a01b606482015260840161079f565b600381016108a68582612c16565b50600481016108b58482612c16565b5042600582015560405185907f1cbdc1f5cc23b0267e7b11c6580bf9dd18d2b28313a50ea572a09a46b65057d5906108ee9087906126a0565b60405180910390a25050505050565b6109056121cf565b6003846040516109159190612cd6565b9081526040519081900360200190206004015460ff16156109785760405162461bcd60e51b815260206004820152601960248201527f446f63746f7220616c7265616479207265676973746572656400000000000000604482015260640161079f565b6009826040516109889190612cd6565b9081526040519081900360200190205460ff16156109e15760405162461bcd60e51b81526020600482015260166024820152752ab9b2b93730b6b29030b63932b0b23c903a30b5b2b760511b604482015260640161079f565b6040518060c0016040528085815260200184815260200183815260200182815260200160011515815260200142815250600385604051610a219190612cd6565b90815260405190819003602001902081518190610a3e9082612c16565b5060208201516001820190610a539082612c16565b5060408201516002820190610a689082612c16565b5060608201516003820190610a7d9082612c16565b50608082015160048201805460ff191691151591909117905560a0909101516005909101556040518490600890610ab5908590612cd6565b90815260200160405180910390209081610acf9190612c16565b506001600983604051610ae29190612cd6565b908152604051908190036020018120805492151560ff19909316929092179091557f1187c17101d2ad9d5a17b4990710f2be353a26783d7627f24824dd75475ddea290610b3490869086908590612cf2565b60405180910390a150505050565b805160208183018101805160088252928201919093012091528054610b6690612b17565b80601f0160208091040260200160405190810160405280929190818152602001828054610b9290612b17565b8015610bdf5780601f10610bb457610100808354040283529160200191610bdf565b820191906000526020600020905b815481529060010190602001808311610bc257829003601f168201915b505050505081565b610bef6121cf565b610bf7612229565b565b83600381604051610c0a9190612cd6565b9081526040519081900360200190206004015460ff16610c645760405162461bcd60e51b8152602060048201526015602482015274111bd8dd1bdc881b9bdd08185d5d1a1bdc9a5e9959605a1b604482015260640161079f565b85600481604051610c759190612cd6565b9081526040519081900360200190206003015460ff16610cd05760405162461bcd60e51b815260206004820152601660248201527514185d1a595b9d081b9bdd081c9959da5cdd195c995960521b604482015260640161079f565b610cde600180546001019055565b6000610ce960015490565b604080516101008101825282815260208082018c81528284018c9052606083018b9052608083018a90524260a0840152600160c0840181905289151560e0850152600086815260029093529390912082518155905193945090928392820190610d529082612c16565b5060408201516002820190610d679082612c16565b5060608201516003820190610d7c9082612c16565b5060808201516004820190610d919082612c16565b5060a082015160058083019190915560c08301516006909201805460e09094015115156101000261ff00199315159390931661ffff199094169390931791909117909155604051610de3908b90612cd6565b90815260405190819003602090810182208054600181018255600091825291902001839055600690610e16908a90612cd6565b90815260405160209181900382018120805460018101825560009182528382200185905591610e4b918c918c918c9101612d35565b60408051601f19818403018152828252805160209182012060008181526007909252919020805460ff19166001179055915083907f32461dca2b0453944e6182689e5a824e738185a02d42ed2a9bc0bc6f6a87783390610eb0908d908d908d90612cf2565b60405180910390a250505050505050505050565b610ecc6121cf565b600081815260026020526040902060060154819060ff16610f275760405162461bcd60e51b8152602060048201526015602482015274149958dbdc9908191bd95cc81b9bdd08195e1a5cdd605a1b604482015260640161079f565b600082815260026020526040808220600601805460ff191690555183917f86618ed9a8bb803e1a820a2b64c8cb57db53d96f30087d61b156724b5806fd8691a25050565b6060600582604051610f7d9190612cd6565b9081526040805191829003602090810183208054808302850183019093528284529190830182828015610fcf57602002820191906000526020600020905b815481526020019060010190808311610fbb575b50505050509050919050565b6110166040518060c0016040528060608152602001606081526020016060815260200160608152602001600015158152602001600081525090565b6003826040516110269190612cd6565b90815260200160405180910390206040518060c001604052908160008201805461104f90612b17565b80601f016020809104026020016040519081016040528092919081815260200182805461107b90612b17565b80156110c85780601f1061109d576101008083540402835291602001916110c8565b820191906000526020600020905b8154815290600101906020018083116110ab57829003601f168201915b505050505081526020016001820180546110e190612b17565b80601f016020809104026020016040519081016040528092919081815260200182805461110d90612b17565b801561115a5780601f1061112f5761010080835404028352916020019161115a565b820191906000526020600020905b81548152906001019060200180831161113d57829003601f168201915b5050505050815260200160028201805461117390612b17565b80601f016020809104026020016040519081016040528092919081815260200182805461119f90612b17565b80156111ec5780601f106111c1576101008083540402835291602001916111ec565b820191906000526020600020905b8154815290600101906020018083116111cf57829003601f168201915b5050505050815260200160038201805461120590612b17565b80601f016020809104026020016040519081016040528092919081815260200182805461123190612b17565b801561127e5780601f106112535761010080835404028352916020019161127e565b820191906000526020600020905b81548152906001019060200180831161126157829003601f168201915b5050509183525050600482015460ff161515602082015260059091015460409091015292915050565b6060600682604051610f7d9190612cd6565b6112c16121cf565b610bf7600061227e565b6113176040518061010001604052806000815260200160608152602001606081526020016060815260200160608152602001600081526020016000151581526020016000151581525090565b60026000838152602001908152602001600020604051806101000160405290816000820154815260200160018201805461135090612b17565b80601f016020809104026020016040519081016040528092919081815260200182805461137c90612b17565b80156113c95780601f1061139e576101008083540402835291602001916113c9565b820191906000526020600020905b8154815290600101906020018083116113ac57829003601f168201915b505050505081526020016002820180546113e290612b17565b80601f016020809104026020016040519081016040528092919081815260200182805461140e90612b17565b801561145b5780601f106114305761010080835404028352916020019161145b565b820191906000526020600020905b81548152906001019060200180831161143e57829003601f168201915b5050505050815260200160038201805461147490612b17565b80601f01602080910402602001604051908101604052809291908181526020018280546114a090612b17565b80156114ed5780601f106114c2576101008083540402835291602001916114ed565b820191906000526020600020905b8154815290600101906020018083116114d057829003601f168201915b5050505050815260200160048201805461150690612b17565b80601f016020809104026020016040519081016040528092919081815260200182805461153290612b17565b801561157f5780601f106115545761010080835404028352916020019161157f565b820191906000526020600020905b81548152906001019060200180831161156257829003601f168201915b50505091835250506005820154602082015260069091015460ff8082161515604084015261010090910416151560609091015292915050565b6115c06121cf565b610bf76122ce565b6060806009836040516115db9190612cd6565b9081526040519081900360200190205460ff1661163a5760405162461bcd60e51b815260206004820152601760248201527f557365726e616d6520646f6573206e6f74206578697374000000000000000000604482015260640161079f565b600060088460405161164c9190612cd6565b9081526020016040518091039020805461166590612b17565b80601f016020809104026020016040519081016040528092919081815260200182805461169190612b17565b80156116de5780601f106116b3576101008083540402835291602001916116de565b820191906000526020600020905b8154815290600101906020018083116116c157829003601f168201915b505050505090506003816040516116f59190612cd6565b9081526040519081900360200190206004015460ff1615611737576040805180820190915260068152653237b1ba37b960d11b60208201529094909350915050565b6004816040516117479190612cd6565b9081526040519081900360200190206003015460ff161561178a576040805180820190915260078152661c185d1a595b9d60ca1b60208201529094909350915050565b60405162461bcd60e51b815260206004820152600e60248201526d155cd95c881b9bdd08199bdd5b9960921b604482015260640161079f565b60006009826040516117d59190612cd6565b9081526040519081900360200190205460ff1692915050565b6002602052600090815260409020805460018201805491929161181090612b17565b80601f016020809104026020016040519081016040528092919081815260200182805461183c90612b17565b80156118895780601f1061185e57610100808354040283529160200191611889565b820191906000526020600020905b81548152906001019060200180831161186c57829003601f168201915b50505050509080600201805461189e90612b17565b80601f01602080910402602001604051908101604052809291908181526020018280546118ca90612b17565b80156119175780601f106118ec57610100808354040283529160200191611917565b820191906000526020600020905b8154815290600101906020018083116118fa57829003601f168201915b50505050509080600301805461192c90612b17565b80601f016020809104026020016040519081016040528092919081815260200182805461195890612b17565b80156119a55780601f1061197a576101008083540402835291602001916119a5565b820191906000526020600020905b81548152906001019060200180831161198857829003601f168201915b5050505050908060040180546119ba90612b17565b80601f01602080910402602001604051908101604052809291908181526020018280546119e690612b17565b8015611a335780601f10611a0857610100808354040283529160200191611a33565b820191906000526020600020905b815481529060010190602001808311611a1657829003601f168201915b50505050600583015460069093015491929160ff80821692506101009091041688565b815160208184018101805160058252928201918501919091209190528054829081106104d057600080fd5b611a896121cf565b600483604051611a999190612cd6565b9081526040519081900360200190206003015460ff1615611afc5760405162461bcd60e51b815260206004820152601a60248201527f50617469656e7420616c72656164792072656769737465726564000000000000604482015260640161079f565b600981604051611b0c9190612cd6565b9081526040519081900360200190205460ff1615611b655760405162461bcd60e51b81526020600482015260166024820152752ab9b2b93730b6b29030b63932b0b23c903a30b5b2b760511b604482015260640161079f565b6040518060a0016040528084815260200183815260200182815260200160011515815260200142815250600484604051611b9f9190612cd6565b90815260405190819003602001902081518190611bbc9082612c16565b5060208201516001820190611bd19082612c16565b5060408201516002820190611be69082612c16565b50606082015160038201805460ff19169115159190911790556080909101516004909101556040518390600890611c1e908490612cd6565b90815260200160405180910390209081611c389190612c16565b506001600982604051611c4b9190612cd6565b908152604051908190036020018120805492151560ff19909316929092179091557ff57ecee040edfbd184404d12d5f2f7343575add2ba648066a9a501fa19bf3a2790611c9b908590859061292f565b60405180910390a1505050565b8051602081830181018051600482529282019190930120915280548190611cce90612b17565b80601f0160208091040260200160405190810160405280929190818152602001828054611cfa90612b17565b8015611d475780601f10611d1c57610100808354040283529160200191611d47565b820191906000526020600020905b815481529060010190602001808311611d2a57829003601f168201915b505050505090806001018054611d5c90612b17565b80601f0160208091040260200160405190810160405280929190818152602001828054611d8890612b17565b8015611dd55780601f10611daa57610100808354040283529160200191611dd5565b820191906000526020600020905b815481529060010190602001808311611db857829003601f168201915b505050505090806002018054611dea90612b17565b80601f0160208091040260200160405190810160405280929190818152602001828054611e1690612b17565b8015611e635780601f10611e3857610100808354040283529160200191611e63565b820191906000526020600020905b815481529060010190602001808311611e4657829003601f168201915b505050506003830154600490930154919260ff1691905085565b611eb16040518060a00160405280606081526020016060815260200160608152602001600015158152602001600081525090565b600482604051611ec19190612cd6565b90815260200160405180910390206040518060a0016040529081600082018054611eea90612b17565b80601f0160208091040260200160405190810160405280929190818152602001828054611f1690612b17565b8015611f635780601f10611f3857610100808354040283529160200191611f63565b820191906000526020600020905b815481529060010190602001808311611f4657829003601f168201915b50505050508152602001600182018054611f7c90612b17565b80601f0160208091040260200160405190810160405280929190818152602001828054611fa890612b17565b8015611ff55780601f10611fca57610100808354040283529160200191611ff5565b820191906000526020600020905b815481529060010190602001808311611fd857829003601f168201915b5050505050815260200160028201805461200e90612b17565b80601f016020809104026020016040519081016040528092919081815260200182805461203a90612b17565b80156120875780601f1061205c57610100808354040283529160200191612087565b820191906000526020600020905b81548152906001019060200180831161206a57829003601f168201915b5050509183525050600382015460ff161515602082015260049091015460409091015292915050565b60606008826040516120c29190612cd6565b908152602001604051809103902080546120db90612b17565b80601f016020809104026020016040519081016040528092919081815260200182805461210790612b17565b8015610fcf5780601f1061212957610100808354040283529160200191610fcf565b820191906000526020600020905b8154815290600101906020018083116121375750939695505050505050565b61215e6121cf565b6001600160a01b0381166121c35760405162461bcd60e51b815260206004820152602660248201527f4f776e61626c653a206e6577206f776e657220697320746865207a65726f206160448201526564647265737360d01b606482015260840161079f565b6121cc8161227e565b50565b6000546001600160a01b03163314610bf75760405162461bcd60e51b815260206004820181905260248201527f4f776e61626c653a2063616c6c6572206973206e6f7420746865206f776e6572604482015260640161079f565b612231612311565b6000805460ff60a01b191690557f5db9ee0a495bf2e6ff9c91a7834c1ba4fdd244a5e8aa4e537bd38aeae4b073aa335b6040516001600160a01b03909116815260200160405180910390a1565b600080546001600160a01b038381166001600160a01b0319831681178455604051919092169283917f8be0079c531659141344cd1fd0a4f28419497f9722a3daafe3b4186f6b6457e09190a35050565b6122d6612361565b6000805460ff60a01b1916600160a01b1790557f62e78cea01bee320cd4e420270b5ea74000d11b0c9f74754ebdbfc544b05a2586122613390565b600054600160a01b900460ff16610bf75760405162461bcd60e51b815260206004820152601460248201527314185d5cd8589b194e881b9bdd081c185d5cd95960621b604482015260640161079f565b600054600160a01b900460ff1615610bf75760405162461bcd60e51b815260206004820152601060248201526f14185d5cd8589b194e881c185d5cd95960821b604482015260640161079f565b634e487b7160e01b600052604160045260246000fd5b600082601f8301126123d557600080fd5b813567ffffffffffffffff808211156123f0576123f06123ae565b604051601f8301601f19908116603f01168101908282118183101715612418576124186123ae565b8160405283815286602085880101111561243157600080fd5b836020870160208301376000602085830101528094505050505092915050565b6000806040838503121561246457600080fd5b823567ffffffffffffffff81111561247b57600080fd5b612487858286016123c4565b95602094909401359450505050565b6000602082840312156124a857600080fd5b813567ffffffffffffffff8111156124bf57600080fd5b6124cb848285016123c4565b949350505050565b60005b838110156124ee5781810151838201526020016124d6565b50506000910152565b6000815180845261250f8160208601602086016124d3565b601f01601f19169290920160200192915050565b60c08152600061253660c08301896124f7565b828103602084015261254881896124f7565b9050828103604084015261255c81886124f7565b9050828103606084015261257081876124f7565b9415156080840152505060a00152949350505050565b60008060006060848603121561259b57600080fd5b83359250602084013567ffffffffffffffff808211156125ba57600080fd5b6125c6878388016123c4565b935060408601359150808211156125dc57600080fd5b506125e9868287016123c4565b9150509250925092565b6000806000806080858703121561260957600080fd5b843567ffffffffffffffff8082111561262157600080fd5b61262d888389016123c4565b9550602087013591508082111561264357600080fd5b61264f888389016123c4565b9450604087013591508082111561266557600080fd5b612671888389016123c4565b9350606087013591508082111561268757600080fd5b50612694878288016123c4565b91505092959194509250565b6020815260006126b360208301846124f7565b9392505050565b600080600080600060a086880312156126d257600080fd5b853567ffffffffffffffff808211156126ea57600080fd5b6126f689838a016123c4565b9650602088013591508082111561270c57600080fd5b61271889838a016123c4565b9550604088013591508082111561272e57600080fd5b61273a89838a016123c4565b9450606088013591508082111561275057600080fd5b5061275d888289016123c4565b9250506080860135801515811461277357600080fd5b809150509295509295909350565b60006020828403121561279357600080fd5b5035919050565b6020808252825182820181905260009190848201906040850190845b818110156127d2578351835292840192918401916001016127b6565b50909695505050505050565b602081526000825160c060208401526127fa60e08401826124f7565b90506020840151601f198085840301604086015261281883836124f7565b9250604086015191508085840301606086015261283583836124f7565b925060608601519150808584030160808601525061285382826124f7565b9150506080840151151560a084015260a084015160c08401528091505092915050565b60208152815160208201526000602083015161010080604085015261289f6101208501836124f7565b91506040850151601f19808685030160608701526128bd84836124f7565b935060608701519150808685030160808701526128da84836124f7565b935060808701519150808685030160a0870152506128f883826124f7565b92505060a085015160c085015260c085015161291860e086018215159052565b5060e0850151801515858301525090949350505050565b60408152600061294260408301856124f7565b828103602084015261295481856124f7565b95945050505050565b60006101008a83528060208401526129778184018b6124f7565b9050828103604084015261298b818a6124f7565b9050828103606084015261299f81896124f7565b905082810360808401526129b381886124f7565b60a0840196909652505091151560c0830152151560e09091015295945050505050565b6000806000606084860312156129eb57600080fd5b833567ffffffffffffffff80821115612a0357600080fd5b612a0f878388016123c4565b945060208601359150808211156125ba57600080fd5b60a081526000612a3860a08301886124f7565b8281036020840152612a4a81886124f7565b90508281036040840152612a5e81876124f7565b94151560608401525050608001529392505050565b602081526000825160a06020840152612a8f60c08401826124f7565b90506020840151601f1980858403016040860152612aad83836124f7565b9250604086015191508085840301606086015250612acb82826124f7565b915050606084015115156080840152608084015160a08401528091505092915050565b600060208284031215612b0057600080fd5b81356001600160a01b03811681146126b357600080fd5b600181811c90821680612b2b57607f821691505b602082108103612b4b57634e487b7160e01b600052602260045260246000fd5b50919050565b6000808354612b5f81612b17565b60018281168015612b775760018114612b8c57612bbb565b60ff1984168752821515830287019450612bbb565b8760005260208060002060005b85811015612bb25781548a820152908401908201612b99565b50505082870194505b50929695505050505050565b601f821115612c1157600081815260208120601f850160051c81016020861015612bee5750805b601f850160051c820191505b81811015612c0d57828155600101612bfa565b5050505b505050565b815167ffffffffffffffff811115612c3057612c306123ae565b612c4481612c3e8454612b17565b84612bc7565b602080601f831160018114612c795760008415612c615750858301515b600019600386901b1c1916600185901b178555612c0d565b600085815260208120601f198616915b82811015612ca857888601518255948401946001909101908401612c89565b5085821015612cc65787850151600019600388901b60f8161c191681555b5050505050600190811b01905550565b60008251612ce88184602087016124d3565b9190910192915050565b606081526000612d0560608301866124f7565b8281036020840152612d1781866124f7565b90508281036040840152612d2b81856124f7565b9695505050505050565b60008451612d478184602089016124d3565b845190830190612d5b8183602089016124d3565b8451910190612d6e8183602088016124d3565b019594505050505056fea2646970667358221220d7b7aef33b23586ecd5ecd2505719252d191cad230b2bc62c3ab4240c5b912e264736f6c63430008130033",
  "linkReferences": {},
  "deployedLinkReferences": {}
}